9104        HOT SHORT                BLKBLACK                             L     0000000009750718811900000030000036201802160000015006114300090US 
9104        HOT SHORT                BLKBLACK                             M     0000000009750718810200000000000045201802160000015006114300090US 
9104        HOT SHORT                BLKBLACK                             S     0000000009750718807200000230000024201802160000015006114300090US 
9104        HOT SHORT                BLKBLACK                             XL    0000000009750718813300000040000012201802160000015006114300090US 
9104        HOT SHORT                BLKBLACK                             XS    0000000009750718806500000000000029201802160000015006114300090US 
9104        HOT SHORT                BLKBLACK                             2X    0000000009750718814000000120000012201802160000015006114300090US 
9105        SHORT                    BLKBLACK                             L     0000000009750718821800000960000000000000000000015006114300090US 
9105        SHORT                    BLKBLACK                             M     0000000009750718820100003310000000000000000000015006114300090US 
9105        SHORT                    BLKBLACK                             S     0000000009750718819500002250000000000000000000015006114300090US 
9105        SHORT                    BLKBLACK                             XL    0000000009750718822500000530000000000000000000015006114300090US 
9105        SHORT                    BLKBLACK                             XS    0000000009750718818800000590000000000000000000015006114300090US 
9105        SHORT                    BLKBLACK                             2X    0000000009750718823200000080000000000000000000015006114300090US 
9106        FOOTLESS PANT            BLKBLACK                             L     0000000009750718830000001170000012201802160000024506114300090US 
9106        FOOTLESS PANT            BLKBLACK                             M     0000000009750718829400002010000009201802160000024506114300090US 
9106        FOOTLESS PANT            BLKBLACK                             S     0000000009750718828700000400000001201802160000024506114300090US 
9106        FOOTLESS PANT            BLKBLACK                             XL    0000000009750718831700000330000003201802160000024506114300090US 
9106        FOOTLESS PANT            BLKBLACK                             XS    0000000009750718827000000400000003201802160000024506114300090US 
9106        FOOTLESS PANT            BLKBLACK                             2X    0000000009750718832400000020000003201802160000024506114300090US 
9107        CROP PANT                BLKBLACK                             L     0000000009750718839300000380000026201802160000022506114300090US 
9107        CROP PANT                BLKBLACK                             M     0000000009750718838600000680000007201802160000022506114300090US 
9107        CROP PANT                BLKBLACK                             S     0000000009750718837900000660000000000000000000022506114300090US 
9107        CROP PANT                BLKBLACK                             XL    0000000009750718840900000390000005201802160000022506114300090US 
9107        CROP PANT                BLKBLACK                             XS    0000000009750718836200000380000000000000000000022506114300090US 
9107        CROP PANT                BLKBLACK                             2X    0000000009750718841600000090000005201802160000022506114300090US 
9108        PANT                     BLKBLACK                             L     0000000009750718847800000440000000000000000000029506114300090US 
9108        PANT                     BLKBLACK                             M     0000000009750718846100000330000000000000000000029506114300090US 
9108        PANT                     BLKBLACK                             S     0000000009750718845400000300000000000000000000029506114300090US 
9108        PANT                     BLKBLACK                             XL    0000000009750718848500000170000000000000000000029506114300090US 
9108        PANT                     BLKBLACK                             XS    0000000009750718844700000210000000000000000000029506114300090US 
9108        PANT                     BLKBLACK                             2X    0000000009750718849200000060000000000000000000029506114300090US 
92          48" THIGH WARMER         BLKBLACK                             1SIZ  0000000009750705067600032830001380201803250000006506114300090CN 
92          48" THIGH WARMER         BURBURGUNDY                          1SIZ  0000000009750705068300000820000240201803250000006506114300090CN 
92          48" THIGH WARMER         LPKLIGHT PINK                        1SIZ  0000000009750705074400000570000120201803250000006506114300090CN 
92          48" THIGH WARMER         TPKTHEATRICAL P                      1SIZ  0000000009750705076800000000000101201803250000006506114300090CN 
92          48" THIGH WARMER         WHTWHITE                             1SIZ  0000000009750705077500001380000000000000000000006506114300090CN 
925         WRAP SKIRT               BURBURGUNDY                          M-L CO2017042509750787712900000000000000000000000000006486204530010US 
925         WRAP SKIRT               BURBURGUNDY                          XL2XCO2017042509750787713600000000000000000000000000006486204530010US 
925         WRAP SKIRT               BURBURGUNDY                          XS-SCO2017042509750787711200000060000000000000000000006486204530010US 
936         FRINGE SASH              BLKBLACK                             1SIZ  0000000009750793460000000090000000000000000000006206114300090US 
936         FRINGE SASH              BRRBRIGHT ROYAL                      1SIZ  0000000009750793461700000230000000000000000000006206114300090US 
936         FRINGE SASH              DPUDEEP PURPLE                       1SIZ  0000000009750793462400000180000000000000000000006206114300090US 
936         FRINGE SASH              KLYKELLY                             1SIZ  0000000009750793463100000030000000000000000000006206114300090US 
936         FRINGE SASH              SCRSCARLET                           1SIZ  0000000009750793464800000200000000000000000000006206114300090US 
936         FRINGE SASH              WHTWHITE                             1SIZ  0000000009750793465500000380000000000000000000006206114300090US 
94          36"THIGH WARMER          BLKBLACK                             1SIZ  0000000009750710326600007950000356201803250000005606114300090CN 
94          36"THIGH WARMER          BURBURGUNDY                          1SIZ  0000000009750718663400000270000240201803250000005606114300090CN 
94          36"THIGH WARMER          LPKLIGHT PINK                        1SIZ  0000000009750718664100002320000060201803250000005606114300090CN 
94          36"THIGH WARMER          TPKTHEATRICAL P                      1SIZ  0000000009750718666500000000000088201803250000005606114300090CN 
94          36"THIGH WARMER          WHTWHITE                             1SIZ  0000000009750718667200000620000000000000000000005606114300090CN 
980         15" PRINT SKIRT          ABSABSTRCT SWRL                      M-L   0000000009750709377200000130000000000000000000010256204530010US 
980         15" PRINT SKIRT          ABSABSTRCT SWRL                      P-S   0000000009750709375800000000000000000000000000010256204530010US 
980         15" PRINT SKIRT          ABSABSTRCT SWRL                      S-M   0000000009750709376500000210000000000000000000010256204530010US 
980         15" PRINT SKIRT          ALOALOHA                             M-L   0000000009750786077000000190000000000000000000010256204530010US 
980         15" PRINT SKIRT          ALOALOHA                             P-S   0000000009750786075600000090000000000000000000010256204530010US 
980         15" PRINT SKIRT          ALOALOHA                             S-M   0000000009750786076300000210000000000000000000010256204530010US 
980         15" PRINT SKIRT          BBMBUBBLE MAGIC                      M-L   0000000009750719544500000150000000000000000000010256204530010US 
980         15" PRINT SKIRT          BBMBUBBLE MAGIC                      P-S   0000000009750719541400000000000000000000000000010256204530010US 
980         15" PRINT SKIRT          BBMBUBBLE MAGIC                      S-M   0000000009750719542100000000000000000000000000010256204530010US 
980         15" PRINT SKIRT          BLBBLK LCE NBQS                      M-L   0000000009750792687200000320000000000000000000010256204530010US 
980         15" PRINT SKIRT          BLBBLK LCE NBQS                      P-S   0000000009750792685800000230000000000000000000010256204530010US 
980         15" PRINT SKIRT          BLBBLK LCE NBQS                      S-M   0000000009750792686500000180000000000000000000010256204530010US 
980         15" PRINT SKIRT          BRBBRGNDY BLSMS                      M-L   0000000009750719547600000000000000000000000000010256204530010US 
980         15" PRINT SKIRT          BRBBRGNDY BLSMS                      P-S   0000000009750719545200000010000000000000000000010256204530010US 
980         15" PRINT SKIRT          BRBBRGNDY BLSMS                      S-M   0000000009750719546900000010000000000000000000010256204530010US 
980         15" PRINT SKIRT          CLBCOLOR BURSTS                      M-L   00000000            00000000000000000000000000010256204530010US 
980         15" PRINT SKIRT          CLBCOLOR BURSTS                      P-S   00000000            00000000000000000000000000010256204530010US 
980         15" PRINT SKIRT          CLBCOLOR BURSTS                      S-M   00000000            00000000000000000000000000010256204530010US 
980         15" PRINT SKIRT          CROCURLY O'S                         M-L   0000000009750719554400000290000000000000000000010256204530010US 
980         15" PRINT SKIRT          CROCURLY O'S                         P-S   0000000009750719552000000020000000000000000000010256204530010US 
980         15" PRINT SKIRT          CROCURLY O'S                         S-M   0000000009750719553700000270000000000000000000010256204530010US 
980         15" PRINT SKIRT          DYDDAY DREAMS                        M-L NR2017031609750709374100000000000000000000000000010256204530010US 
980         15" PRINT SKIRT          DYDDAY DREAMS                        P-S NR2017031609750709372700000140000000000000000000010256204530010US 
980         15" PRINT SKIRT          DYDDAY DREAMS                        S-M NR2017031609750709373400000000000000000000000000010256204530010US 
980         15" PRINT SKIRT          FFLFUN FLOWERS                       M-L   0000000009750719557500000260000000000000000000010256204530010US 
980         15" PRINT SKIRT          FFLFUN FLOWERS                       P-S   0000000009750719555100000090000000000000000000010256204530010US 
980         15" PRINT SKIRT          FFLFUN FLOWERS                       S-M   0000000009750719556800000300000000000000000000010256204530010US 
980         15" PRINT SKIRT          FLRFLLING ROSES                      M-L   00000000            00000000000000000000000000010256204530010US 
980         15" PRINT SKIRT          FLRFLLING ROSES                      P-S   00000000            00000000000000000000000000010256204530010US 
980         15" PRINT SKIRT          FLRFLLING ROSES                      S-M   00000000            00000000000000000000000000010256204530010US 
980         15" PRINT SKIRT          FLSFLWR SHOWERS                      M-L   00000000            00000000000000000000000000010256204530010US 
980         15" PRINT SKIRT          FLSFLWR SHOWERS                      P-S   00000000            00000000000000000000000000010256204530010US 
980         15" PRINT SKIRT          FLSFLWR SHOWERS                      S-M   00000000            00000000000000000000000000010256204530010US 
980         15" PRINT SKIRT          GREGRDN ETCHNGS                      M-L   0000000009750719564300000400000000000000000000010256204530010US 
980         15" PRINT SKIRT          GREGRDN ETCHNGS                      P-S   0000000009750719562900000190000000000000000000010256204530010US 
980         15" PRINT SKIRT          GREGRDN ETCHNGS                      S-M   0000000009750719563600000250000000000000000000010256204530010US 
980         15" PRINT SKIRT          INTINTRTWD TNLS                      M-L   00000000            00000000000000000000000000010256204530010US 
980         15" PRINT SKIRT          INTINTRTWD TNLS                      P-S   00000000            00000000000000000000000000010256204530010US 
980         15" PRINT SKIRT          INTINTRTWD TNLS                      S-M   00000000            00000000000000000000000000010256204530010US 
980         15" PRINT SKIRT          MXFMIXED FLORAL                      M-L   0000000009750709368000000400000000000000000000010256204530010US 
980         15" PRINT SKIRT          MXFMIXED FLORAL                      P-S   0000000009750709366600000200000000000000000000010256204530010US 
980         15" PRINT SKIRT          MXFMIXED FLORAL                      S-M   0000000009750709367300000320000000000000000000010256204530010US 
980         15" PRINT SKIRT          OCCOCN CURRENTS                      M-L   00000000            00000000000000000000000000010256204530010US 
980         15" PRINT SKIRT          OCCOCN CURRENTS                      P-S   00000000            00000000000000000000000000010256204530010US 
980         15" PRINT SKIRT          OCCOCN CURRENTS                      S-M   00000000            00000000000000000000000000010256204530010US 
980         15" PRINT SKIRT          ORBORCHD BLOOMS                      M-L   00000000            00000000000000000000000000010256204530010US 
980         15" PRINT SKIRT          ORBORCHD BLOOMS                      P-S   00000000            00000000000000000000000000010256204530010US 
980         15" PRINT SKIRT          ORBORCHD BLOOMS                      S-M   00000000            00000000000000000000000000010256204530010US 
980         15" PRINT SKIRT          PLRPNK LTC ROSE                      M-L   0000000009750792750300000100000000000000000000010256204530010US 
980         15" PRINT SKIRT          PLRPNK LTC ROSE                      P-S   0000000009750792748000000070000000000000000000010256204530010US 
980         15" PRINT SKIRT          PLRPNK LTC ROSE                      S-M   0000000009750792749700000170000000000000000000010256204530010US 
980         15" PRINT SKIRT          PSAPSTL ABSTRCT                      M-L NR2017030909750709365900000000000000000000000000010256204530010US 
980         15" PRINT SKIRT          PSAPSTL ABSTRCT                      P-S NR2017030909750709363500000040000000000000000000010256204530010US 
980         15" PRINT SKIRT          PSAPSTL ABSTRCT                      S-M NR2017030909750709364200000000000000000000000000010256204530010US 
980         15" PRINT SKIRT          RBBRNBW BRIGHTS                      M-L   0000000009750703305100000300000000000000000000010256204530010US 
980         15" PRINT SKIRT          RBBRNBW BRIGHTS                      P-S   0000000009750703303700000180000000000000000000010256204530010US 
980         15" PRINT SKIRT          RBBRNBW BRIGHTS                      S-M   0000000009750703304400000250000000000000000000010256204530010US 
980         15" PRINT SKIRT          SFASFRI ADVNTRE                      M-L   0000000009750709359800000050000000000000000000010256204530010US 
980         15" PRINT SKIRT          SFASFRI ADVNTRE                      P-S   0000000009750709357400000160000000000000000000010256204530010US 
980         15" PRINT SKIRT          SFASFRI ADVNTRE                      S-M   0000000009750709358100000290000000000000000000010256204530010US 
980         15" PRINT SKIRT          TNVTINY VINES                        M-L   0000000009750719575900000010000000000000000000010256204530010US 
980         15" PRINT SKIRT          TNVTINY VINES                        P-S   0000000009750719573500000060000000000000000000010256204530010US 
980         15" PRINT SKIRT          TNVTINY VINES                        S-M   0000000009750719574200000150000000000000000000010256204530010US 
980         15" PRINT SKIRT          TRCTREBLE CLEFS                      M-L   00000000            00000000000000000000000000010256204530010US 
980         15" PRINT SKIRT          TRCTREBLE CLEFS                      P-S   00000000            00000000000000000000000000010256204530010US 
980         15" PRINT SKIRT          TRCTREBLE CLEFS                      S-M   00000000            00000000000000000000000000010256204530010US 
980         15" PRINT SKIRT          WLAWILD ANIMAL                       M-L   0000000009750709356700000180000000000000000000010256204530010US 
980         15" PRINT SKIRT          WLAWILD ANIMAL                       P-S   0000000009750709354300000130000000000000000000010256204530010US 
980         15" PRINT SKIRT          WLAWILD ANIMAL                       S-M   0000000009750709355000000120000000000000000000010256204530010US 
980         15" PRINT SKIRT          WLRWHT LTC ROSE                      M-L   0000000009750792758900000000000000000000000000010256204530010US 
980         15" PRINT SKIRT          WLRWHT LTC ROSE                      P-S   0000000009750792756500000000000000000000000000010256204530010US 
980         15" PRINT SKIRT          WLRWHT LTC ROSE                      S-M   0000000009750792757200000000000000000000000000010256204530010US 
988         WRAP SKIRT               BLKBLACK                             M-L   0000000009750702856900000290000000000000000000008406204530010US 
988         WRAP SKIRT               BLKBLACK                             P-S   0000000009750702855200000280000000000000000000008406204530010US 
988         WRAP SKIRT               BLKBLACK                             S-M   0000000009750707180000000450000000000000000000008406204530010US 
988         WRAP SKIRT               LPKLIGHT PINK                        M-L   0000000009750702858300000230000000000000000000008406204530010US 
988         WRAP SKIRT               LPKLIGHT PINK                        P-S   0000000009750702857600000020000000000000000000008406204530010US 
988         WRAP SKIRT               LPKLIGHT PINK                        S-M   0000000009750707181700000220000000000000000000008406204530010US 
989         SKIRT                    BLKBLACK                             M-L   0000000009750795420200000580000000000000000000011056204530010US 
989         SKIRT                    BLKBLACK                             P-S   0000000009750795418900000630000000000000000000011056204530010US 
989         SKIRT                    BLKBLACK                             S-M   0000000009750795419600001870000000000000000000011056204530010US 
989         SKIRT                    BURBURGUNDY                          M-L   0000000009750795423300000460000000000000000000011056204530010US 
989         SKIRT                    BURBURGUNDY                          P-S   0000000009750795421900000500000000000000000000011056204530010US 
989         SKIRT                    BURBURGUNDY                          S-M   0000000009750795422600000660000000000000000000011056204530010US 
989         SKIRT                    DRYDARK ROYAL                        M-L   0000000009750795426400000620000000000000000000011056204530010US 
989         SKIRT                    DRYDARK ROYAL                        P-S   0000000009750795424000000370000000000000000000011056204530010US 
989         SKIRT                    DRYDARK ROYAL                        S-M   0000000009750795425700001590000000000000000000011056204530010US 
989         SKIRT                    NUDNUDE                              M-L   0000000009750708079600000000000000000000000000011056204530010US 
989         SKIRT                    NUDNUDE                              P-S   0000000009750708077200000250000000000000000000011056204530010US 
989         SKIRT                    NUDNUDE                              S-M   0000000009750708078900000350000000000000000000011056204530010US 
989         SKIRT                    SCRSCARLET                           M-L   0000000009750795429500000230000000000000000000011056204530010US 
989         SKIRT                    SCRSCARLET                           P-S   0000000009750795427100000200000000000000000000011056204530010US 
989         SKIRT                    SCRSCARLET                           S-M   0000000009750795428800000170000000000000000000011056204530010US 
989         SKIRT                    WHTWHITE                             M-L   0000000009750795432500000130000000000000000000011056204530010US 
989         SKIRT                    WHTWHITE                             P-S   0000000009750795430100000210000000000000000000011056204530010US 
989         SKIRT                    WHTWHITE                             S-M   0000000009750795431800000860000000000000000000011056204530010US 
990         15" WRAP SKIRT           BLKBLACK                             M-L   0000000009750718796900000000000232201802160000009756204530010US 
990         15" WRAP SKIRT           BLKBLACK                             P-S   0000000009750718795200000450000084201802160000009756204530010US 
990         15" WRAP SKIRT           BLKBLACK                             S-M   0000000009750707188600000580000143201802160000009756204530010US 
990         15" WRAP SKIRT           LPKLIGHT PINK                        M-L NR2017121509750710987900000000000000000000000000009756204530010US 
990         15" WRAP SKIRT           LPKLIGHT PINK                        P-S NR2017121509750718799000000050000000000000000000009756204530010US 
990         15" WRAP SKIRT           LPKLIGHT PINK                        S-M NR2017121509750707190900000040000000000000000000009756204530010US 
990         15" WRAP SKIRT           WHTWHITE                             M-L   0000000009750710989300000130000024201802160000009756204530010US 
990         15" WRAP SKIRT           WHTWHITE                             P-S   0000000009750718812600000100000000000000000000009756204530010US 
990         15" WRAP SKIRT           WHTWHITE                             S-M   0000000009750707193000000050000024201802160000009756204530010US 
990X        15" WRAP SKIRT           BLKBLACK                             XL    0000000009750719347200000000000000000000000000010256204530010US 
